:100000000C9464000C948C000C948C000C944803A9
:100010000C9448030C9448030C948C000C948C00B2
:100020000C948C000C948C000C948C000C948C0020
:100030000C948C000C948C000C948C000C948C0010
:100040000C9496070C948C000C946F0A0C94A10AE3
:100050000C948C000C948C000C948C000C948C00F0
:100060000C948C000C948C0000000008000201002D
:100070000003040700000000000000000102040863
:100080001020408001020408102001020408102002
:10009000040404040404040402020202020203032E
:1000A00003030303000000002300260029000000D2
:1000B0000000250028002B0000000000240027007D
:1000C0002A006907D10A940711241FBECFEFD8E098
:1000D000DEBFCDBF11E0A0E0B1E0EEE9FDE102C07E
:1000E00005900D92AE33B107D9F724E0AEE3B1E04D
:1000F00001C01D92AE3AB207E1F710E0C6ECD0E0C5
:1001000004C02297FE010E94AF0EC23CD107C9F77E
:100110000E94150B0C94C20E0C940000CF92DF923B
:10012000EF92FF920F931F93E82FF92F05C0015014
:1001300011092109310961F1908196239417B9F3CE
:1001400005C0015011092109310911F1908196234F
:100150009413F7CFC12CD12CE12CF12C0AC08FEFD6
:10016000C81AD80AE80AF80A0C151D052E053F051D
:1001700079F080818623841791F36C2D7D2D8E2D4F
:100180009F2D1F910F91FF90EF90DF90CF900895DA
:1001900060E070E080E090E01F910F91FF90EF90A1
:1001A000DF90CF9008950895FC011282138210828F
:1001B0003181482F282F241B231730F4FC01E05BEA
:1001C000FF4F20830196F6CF0895662321F0643116
:1001D00018F063E101C061E0FC0161830C94D4007C
:1001E000FC01938181E0890F8383DF0124E0929FEA
:1001F000A00DB11D112414964D935D936D937C93C6
:1002000017979181891708F013828281891710F45A
:100210008F5F8283108208953F924F925F926F9218
:100220007F928F929F92AF92BF92CF92DF92EF9286
:10023000FF920F931F93CF93DF93EC01EA80F12C91
:10024000570121E0A21AB108612C862D90E08A1591
:100250009B05A4F081E08883DF91CF911F910F91DE
:10026000FF90EF90DF90CF90BF90AF909F908F90D6
:100270007F906F905F904F903F9008957724739494
:10028000552453946701C81AD90A872D90E08C151C
:100290009D0584F58E01080F191F015B1F4FF801A2
:1002A00040808C0F9D1F4C01F0E58F0E911CF401D6
:1002B0003080FE0124E0429EE00DF11D1124DE019C
:1002C00084E0389EA00DB11D112414962D913D910E
:1002D0004D915C91179764817581868197810E9409
:1002E000C20D18162CF4F8013082F4014082512C12
:1002F0007394CBCF5110AECF6394A7CFCF93DF933E
:10030000EC018A81882309F443C08881811103C0EC
:10031000CE010E940C019A81892F869590FF10C012
:10032000FE01E80FF11DE05BFF4F808124E0829F1A
:10033000C00DD11D11246C817D818E819F812CC0C7
:100340009E01280F311DC901F901E05BFF4F20819B
:10035000FE0134E0239FE00DF11D1124DC01A15BBF
:10036000BF4F8C9194E0899FC00DD11D11242C8129
:100370003D814E815F8164817581868197810E9474
:100380007B0C20E030E040E05FE30E94C60D04C03B
:1003900060E070E080EC9FE7DF91CF910895FC0171
:1003A000708767830895CF93DF93EC018F819885E1
:1003B000DC01ED91FC910190F081E02D60E0099568
:1003C0001D821E82DF91CF9108950F931F93CF93CB
:1003D000DF931F92CDB7DEB78C01FC0180818617B9
:1003E00039F0C80169830E94D3016981F8016083F3
:1003F0000F90DF91CF911F910F91089540385105D3
:1004000014F04FE750E041382FEF520714F441E861
:100410005FEF9A0157FF04C022273327241B350BB7
:1004200035952795613039F457FF03C07FE3721B80
:100430000CC070E408C0623041F457FF03C07FEB8A
:10044000721B07C070EC720F04C0711105C071E01F
:1004500003C07F3F09F47EEFDC0117968D919C91DC
:100460001897DC01ED91FC910190F081E02D672F50
:100470000994EF92FF921F93CF93DF9300D0CDB7F3
:10048000DEB77C01162F60E049835A830E94E501A4
:1004900049815A81612FC7010F900F90DF91CF9151
:1004A0001F91FF90EF900C94FE01209180013091FC
:1004B000810128173907B9F490913E0180913F01DD
:1004C000981789F0E0913E01F0E0E05CFE4F8081FA
:1004D00020913E0130E02F5F3F4F2F733327209351
:1004E0003E0190E008958FEF9FEF08951F93CF9303
:1004F000DF93DC015C968D919C915D97009749F4A8
:1005000081E090E013969C938E93129780E090E0A8
:100510003BC05196ED91FC91529750962C9150977B
:10052000322F30951FB75E964C915E9741FB77272F
:1005300070F941FD6095F8944081772311F0422BCA
:1005400001C043234083EC012197F1F748E050813B
:1005500060FF02C0522B01C053235083EC0121974E
:10056000F1F76695415099F78081772311F0832345
:1005700001C0822B80831FBF5C968D919C915D97FB
:100580000197F1F781E090E0DF91CF911F910895FD
:1005900020918001309181012817390781F49091D1
:1005A0003E0180913F01981751F0E0913E01F0E04B
:1005B000E05CFE4F8081992787FD909508958FEF2D
:1005C0009FEF08952091800130918101281739070C
:1005D00071F480913F0120913E0190E0805C9F4F3B
:1005E000821B910960E470E00E94390E089580E05A
:1005F00090E00895209180013091810128173907FA
:1006000039F48FB7F89410923F0110923E018FBFDA
:100610000895E0918001F0918101E817F90769F4EC
:10062000A389B4899C918589809589238C931092A4
:1006300081011092800181E0089580E00895CF93B8
:10064000DF93EC018A8D9B8D892BF1F080918001E5
:10065000909181018C179D07B9F0009711F00E94CD
:1006600009038E8D8E7F8E8F10923F0110923E0176
:10067000D0938101C0938001EB89FC8980819D89A1
:10068000892B808381E001C080E0DF91CF910895C4
:100690001F920F920FB60F9211242F933F934F93F7
:1006A0005F936F937F938F939F93AF93BF93EF93DA
:1006B000FF93E0918001F0918101309709F451C0DE
:1006C000868DA685B785958581FF04C08C91892389
:1006D00029F447C08C91892309F043C0A389B489C8
:1006E0009C918589809589238C9386899789019728
:1006F000F1F7208D318DA685B785758558E040E0EE
:10070000C9010197F1F7842F90E095958795482FBF
:100710006C91672309F04068515091F7868D81FDF7
:10072000409580913F0190E001968F739927209129
:100730003E01281749F0A0913F01B0E0A05CBE4FF8
:100740004C9380933F0103C0868D8160868F828D9C
:10075000938D0197F1F7A389B4898C919589892BA1
:100760008C93FF91EF91BF91AF919F918F917F916A
:100770006F915F914F913F912F910F900FBE0F900E
:100780001F90189528E031E0FC01318320830C9400
:1007900009031F93CF93DF93EC01162F6E8D66959F
:1007A000617081E06827812F0E94C80861E0812F75
:1007B0000E948F08812F90E0FC01E458FF4FE491E4
:1007C000E88BFC01E057FF4FE491F0E0EE0FFF1FD4
:1007D000E255FF4F859194919A8B898BDF91CF9150
:1007E0001F9108951F93CF93DF93EC01162F60E0C4
:1007F000812F0E948F088E8D81FD04C061E0812FC2
:100800000E94C8081C87812F90E0FC01E458FF4F2C
:10081000E491ED87FC01E057FF4FE491F0E0EE0F2B
:10082000FF1FEC55FF4F859194919F878E87DF9135
:10083000CF911F910895FF920F931F93CF93DF9352
:10084000EC01F62E522F1B821A8208EE13E020E0F4
:1008500030E00C831D832E833F8388E091E09983F1
:1008600088831F8A1E8A198E188E1B8E1A8E1D8EE3
:100870001C8E8E8D8E7F50FB81F98E8F642FCE0162
:100880000E94C9036F2DCE01DF91CF911F910F916F
:10089000FF900C94F203CF93DF93EC019A01AB012C
:1008A0001B8E1A8E198E188E1F8A1E8A60E079E0C0
:1008B0008DE390E00E946F0EC9012430310520F0D5
:1008C000B9016350710902C061E070E07D8F6C8FE7
:1008D000EC85E63108F068C0B9017695679564311A
:1008E000710518F06351710902C061E070E07F8BFF
:1008F0006E8B069718F0C901059702C081E090E061
:10090000998F888FC901880F991F820F931F969521
:100910008795969587958D30910510F00C9702C0BC
:1009200081E090E09B8F8A8F20916800E83050F042
:1009300091E0EE3008F490E081E001C0880F9A95D4
:10094000EAF701C084E0822B809368002C85283070
:1009500038F02E3040F0263148F48CE690E008C0A4
:100960008DE690E005C08BE690E002C080E090E06C
:100970009C8B8B8B283030F481E001C0880F2A9546
:10098000EAF70DC0822F90E02E3010F4089701C0D6
:100990000E9791E001C0990F8A95EAF7892F8D8B08
:1009A0008C8D9D8D0197F1F7CE01DF91CF910C9445
:1009B0001F03CF93DF93C4EDD3E0C356D109CE011B
:1009C0000E94D30081E0C238D807B9F78DED93E0DB
:1009D000DF91CF910C94C203CF93DF9328EA31E6E5
:1009E00040E050E061E083E00E94FE080E94100DAC
:1009F000AB01BC0182E891E00E94F00028EA31E6F8
:100A000040E050E061E084E00E94FE080E94100D8A
:100A1000AB01BC0185EE91E00E94F00028EA31E6CE
:100A200040E050E061E085E00E94FE080E94100D69
:100A3000AB01BC0188E492E00E94F00028EA31E6B4
:100A400040E050E061E086E00E94FE080E94100D48
:100A5000AB01BC018BEA92E00E94F00028EA31E68B
:100A600040E050E061E087E00E94FE080E94100D27
:100A7000AB01BC018EE093E00E94F00028EA31E671
:100A800040E050E061E088E00E94FE080E94100D06
:100A9000AB01BC0181E793E00E94F00082E891E0A5
:100AA0000E947E010E94DF0C7093FD036093FC03A3
:100AB00085EE91E00E947E010E94DF0C7093FF039F
:100AC0006093FE0388E492E00E947E010E94DF0CA6
:100AD00070930104609300048BEA92E00E947E010F
:100AE0000E94DF0C70930304609302048EE093E095
:100AF0000E947E01C4E0D4E00E94DF0C7983688309
:100B000081E793E00E947E010E94DF0C709307044E
:100B100060930604688179814AE050E081E194E0C5
:100B2000DF91CF910C941A0C2F923F924F925F92CB
:100B30006F927F928F929F92AF92BF92CF92DF92ED
:100B4000EF92FF920F931F93CF93DF93CDB7DEB752
:100B500028970FB6F894DEBF0FBECDBF61E070E0FE
:100B600080E090E00E9403080E94EC04609104047D
:100B700070910504613B24E072070CF464C188277E
:100B800077FD8095982F99249A949F929F929F9297
:100B900011E8812E8F92A12CB12C650113EAE12E70
:100BA00017E0F12E00E010E022EF33E040E050E0EB
:100BB0000E94320C0F900F900F900F9061387F4F72
:100BC0008F4F9F4F9CF1609104047091050488271A
:100BD00077FD8095982F9F929F929F928F9222EF00
:100BE00033E040E050E00E94320C0F900F900F90E5
:100BF0000F906038710581059105ECF46091040453
:100C000070910504882777FD8095982F9F929F9279
:100C10009F928F9222EF33E040E050E00E94320C2E
:100C20001B010F900F900F900F9008C0B1E82B2E72
:100C300033243A9403C0AFE72A2E312C6091040488
:100C400070910504882777FD8095982F1F921F9239
:100C50001F92EFE79E2E9F92A12CB12C650113EA03
:100C6000E12E17E0F12E00E010E022EF33E040E04B
:100C700050E00E94320C0F900F900F900F9061384F
:100C80007F4F8F4F9F4F9CF160910404709105043A
:100C9000882777FD8095982F1F921F921F929F9211
:100CA00022EF33E040E050E00E94320C0F900F90B2
:100CB0000F900F906038710581059105ECF46091FB
:100CC000040470910504882777FD8095982F1F9262
:100CD0001F921F929F9222EF33E040E050E00E946B
:100CE000320C4B010F900F900F900F9008C051E8FD
:100CF000852E99249A9403C04FE7842E912C6091FD
:100D0000FE037091FF03882777FD8095982F94014B
:100D1000442737FD4095542F29833A834B835C83C6
:100D20005F934F933F932F932101662457FC609468
:100D3000762C6301520113EAE12E17E0F12E00E058
:100D400010E022EF33E040E050E00E94320C6D836F
:100D50007E838F8398876091FC037091FD038827C1
:100D600077FD8095982F3C813F934B814F935A811B
:100D70005F93E981EF9312EFE12E13E0F12E00E093
:100D800010E023EA37E040E050E00E94320C0D8191
:100D90001E81060F171F0FB6F894DEBF0FBECDBF22
:100DA000021513052CF0801691061CF4840101C075
:100DB00081014D805E80461A570A421453042CF07C
:100DC0001201841495040CF4140164E171E081E1D2
:100DD00094E00E94620B4AE050E0B10181E194E0AE
:100DE0000E94120C68E171E081E194E00E94620BC4
:100DF0004AE050E0B80181E194E00E941A0CA80199
:100E000062E084ED93E00E943902A10161E084ED8B
:100E100093E028960FB6F894DEBF0FBECDBFDF91EA
:100E2000CF911F910F91FF90EF90DF90CF90BF90E7
:100E3000AF909F908F907F906F905F904F903F907A
:100E40002F900C94390228960FB6F894DEBF0FBE8F
:100E5000CDBFDF91CF911F910F91FF90EF90DF9069
:100E6000CF90BF90AF909F908F907F906F905F904A
:100E70004F903F902F90089526E040E052EC61E0C3
:100E800070E081E194E00E940D0A40E855E260E0E4
:100E900070E08DED93E00C944B0460E083E00E94E1
:100EA0008F0860E084E00E948F0860E085E00E9487
:100EB0008F0860E086E00E948F0860E087E00E9473
:100EC0008F0860E088E00C948F080E943C070C9427
:100ED0004D0720E04CE060E08DED93E00E941B04A4
:100EE0006DED73E084ED93E00E94CF0165E082E850
:100EF00091E00E94E50065E085EE91E00E94E5004A
:100F000065E088E492E00E94E50065E08BEA92E00B
:100F10000E94E50065E08EE093E00E94E50065E058
:100F200081E793E00C94E5000C94D9041F920F9292
:100F30000FB60F9211242F933F938F939F93AF93EC
:100F4000BF938091090490910A04A0910B04B09181
:100F50000C043091080423E0230F2D3720F4019670
:100F6000A11DB11D05C026E8230F0296A11DB11DCC
:100F7000209308048093090490930A04A0930B041F
:100F8000B0930C0480910D0490910E04A0910F0475
:100F9000B09110040196A11DB11D80930D04909392
:100FA0000E04A0930F04B0931004BF91AF919F91D2
:100FB0008F913F912F910F900FBE0F901F9018951A
:100FC0003FB7F89480910D0490910E04A0910F0406
:100FD000B091100426B5A89B05C02F3F19F00196CB
:100FE000A11DB11D3FBF6627782F892F9A2F620F51
:100FF000711D811D911D42E0660F771F881F991F8B
:101000004A95D1F70895CF92DF92EF92FF92CF9356
:10101000DF936B017C010E94E007EB01C114D10456
:10102000E104F10489F00E94790C0E94E0076C1B36
:101030007D0B683E734090F381E0C81AD108E10847
:10104000F108C851DC4FEACFDF91CF91FF90EF90CC
:10105000DF90CF900895789484B5826084BD84B584
:10106000816084BD85B5826085BD85B5816085BDA3
:10107000EEE6F0E0808181608083E1E8F0E01082BC
:10108000808182608083808181608083E0E8F0E0FD
:10109000808181608083E1EBF0E0808184608083E7
:1010A000E0EBF0E0808181608083EAE7F0E080811E
:1010B000846080838081826080838081816080837E
:1010C0008081806880831092C1000895833081F010
:1010D00028F4813099F08230A1F008958730A9F08A
:1010E0008830B9F08430D1F4809180008F7D03C0C6
:1010F000809180008F7780938000089584B58F77EA
:1011000002C084B58F7D84BD08958091B0008F7733
:1011100003C08091B0008F7D8093B0000895CF937D
:10112000DF9390E0FC01E458FF4F2491FC01E0576D
:10113000FF4F8491882349F190E0880F991FFC01AB
:10114000E854FF4FA591B49182559F4FFC01C59182
:10115000D4919FB7611108C0F8948C912095822397
:101160008C93888182230AC0623051F4F8948C9168
:10117000322F309583238C938881822B888304C0FF
:10118000F8948C91822B8C939FBFDF91CF9108951F
:101190000F931F93CF93DF931F92CDB7DEB7282F06
:1011A00030E0F901E859FF4F8491F901E458FF4F0D
:1011B0001491F901E057FF4F04910023C9F08823EF
:1011C00021F069830E9466086981E02FF0E0EE0F4C
:1011D000FF1FE255FF4FA591B4919FB7F8948C91F2
:1011E000611103C01095812301C0812B8C939FBF97
:1011F0000F90DF91CF911F910F9108950F931F933F
:10120000762F90E0FC01E458FF4F6491FC01E05719
:10121000FF4FE4917111762FF0E0EE0FFF1FEC55B8
:10122000FF4F8591949189019A013F70472F0E9449
:101230008E00611571058105910531F06F5F7F4F5B
:101240008F4F9F4F9F7003C060E070E0CB011F91F4
:101250000F910895FC01818D228D90E0805C9F4F5D
:10126000821B91098F7399270895FC01918D828DBE
:10127000981731F0828DE80FF11D858D90E008956B
:101280008FEF9FEF0895FC01918D828D981761F08B
:10129000828DDF01A80FB11D5D968C91928D9F5FAD
:1012A0009F73928F90E008958FEF9FEF089587ECE2
:1012B0009AE0892B49F080E090E0892B29F00E9488
:1012C000C70A81110C9400000895FC01848DDF0190
:1012D000A80FB11DA35ABF4F2C91848D90E00196A9
:1012E0008F739927848FA689B7892C93A089B18998
:1012F0008C9180648C93938D848D981306C00288A2
:10130000F389E02D80818F7D80830895CF93DF93D3
:10131000EC01888D8823C9F0EA89FB89808185FDED
:1013200005C0A889B9898C9186FD0FC00FB607FC4E
:10133000F5CF808185FFF2CFA889B9898C9185FF8F
:10134000EDCFCE010E946509E7CFDF91CF910895DF
:10135000CF92DF92FF920F931F93CF93DF931F9251
:10136000CDB7DEB76C0181E0D60158968C935897C3
:101370005B969C915B975C968C915C97981307C0E9
:101380005096ED91FC915197808185FD2EC0F6011C
:10139000038D10E00F5F1F4F0F731127F02EF60122
:1013A000848DF81211C00FB607FCF9CFD601509604
:1013B000ED91FC915197808185FFF1CFC601698342
:1013C0000E9465096981EBCF838DE80FF11DE35A17
:1013D000FF4F6083D6015B960C935B975296ED911D
:1013E000FC915397808180620CC0D6015696ED9196
:1013F000FC91579760835096ED91FC9151978081B5
:101400008064808381E090E00F90DF91CF911F9105
:101410000F91FF90DF90CF900895BF92CF92DF920F
:10142000EF92FF92CF93DF93EC016A017B01B22E22
:10143000E889F98982E08083411581EE58076105CA
:101440007105A1F060E079E08DE390E0A7019601DD
:101450000E944D0E21503109410951095695479579
:1014600037952795211580E1380798F0E889F989A3
:10147000108260E874E88EE190E0A70196010E9476
:101480004D0E21503109410951095695479537951F
:101490002795EC85FD853083EE85FF852083188EAA
:1014A000EC89FD89B082EA89FB8980818061808333
:1014B000EA89FB89808188608083EA89FB89808151
:1014C00080688083EA89FB8980818F7D8083DF91BA
:1014D000CF91FF90EF90DF90CF90BF9008951F9233
:1014E0000F920FB60F9211242F938F939F93EF9328
:1014F000FF93E0912104F09122048081E091270480
:10150000F091280482FD12C0908180912A048F5F9F
:101510008F7320912B04821751F0E0912A04F0E0A0
:10152000EF5EFB4F958F80932A0401C08081FF916D
:10153000EF919F918F912F910F900FBE0F901F9061
:1015400018951F920F920FB60F9211242F933F936D
:101550004F935F936F937F938F939F93AF93BF93BB
:10156000EF93FF9381E194E00E946509FF91EF9171
:10157000BF91AF919F918F917F916F915F914F91AB
:101580003F912F910F900FBE0F901F90189581E102
:1015900094E00E942A0921E0892B09F420E0822F9F
:1015A0000895109214041092130488EE93E0A0E0C2
:1015B000B0E08093150490931604A0931704B093A1
:1015C000180481E291E0909312048093110485EC59
:1015D00090E090931E0480931D0484EC90E090931F
:1015E000200480931F0480EC90E090932204809369
:1015F000210481EC90E0909324048093230482ECF6
:1016000090E0909326048093250486EC90E09093DC
:1016100028048093270410922A0410922B0410921D
:101620002C0410922D04089508950E942B080E9406
:10163000140B0E946507C7E5D9E00E949405209726
:10164000E1F30E945709F9CFCF92DF92EF92FF9218
:101650000F931F93CF93DF936C017A01EB01E60E9A
:10166000F71E00E010E0CE15DF0561F06991D601AC
:10167000ED91FC910190F081E02DC6010995080FD4
:10168000191FF1CFC801DF91CF911F910F91FF90EA
:10169000EF90DF90CF9008956115710581F0DB0127
:1016A0000D900020E9F7AD0141505109461B570B41
:1016B000DC01ED91FC910280F381E02D099480E042
:1016C00090E008950C944C0BDC01ED91FC9101909D
:1016D000F081E02D09946DE271E00C944C0B8F9237
:1016E0009F92AF92BF92CF92DF92EF92FF920F93B1
:1016F0001F93CF93DF93CDB7DEB7A1970FB6F894C2
:10170000DEBF0FBECDBF7C01C42EE52FCB01D22E94
:1017100019A221E02D1510F02AE0D22E8E010F5DC6
:101720001F4F8D2C912CA12CB12C6C2D7E2FA5013F
:1017300094010E944D0E8C2DD29E801911240150CF
:1017400011098A3014F4805D01C0895CF80180833E
:10175000211531054105510521F0C22EE32FCA01A3
:10176000E4CFB801C7010E944C0BA1960FB6F894C4
:10177000DEBF0FBECDBFDF91CF911F910F91FF90C4
:10178000EF90DF90CF90BF90AF909F908F90089593
:10179000CF92DF92EF92FF920F931F93CF93DF933D
:1017A000EC016A017B012115310579F4E881F981A9
:1017B0000190F081E02D642FDF91CF911F910F9167
:1017C000FF90EF90DF90CF9009942A303105E9F433
:1017D00077FF1AC06DE20E94640B8C0144275527E5
:1017E000BA014C195D096E097F092AE0CE010E94F9
:1017F0006F0B800F911FDF91CF911F910F91FF9081
:10180000EF90DF90CF9008952AE0B701A601CE01B6
:10181000DF91CF911F910F91FF90EF90DF90CF90CC
:101820000C946F0B9A01AB01662757FD6095762FDC
:101830000C94C80B0F931F93CF93DF93EC019A0185
:10184000AB01662757FD6095762F0E94C80B8C016F
:10185000CE010E946B0B800F911FDF91CF911F91E2
:101860000F9108954F925F926F927F92AF92BF92C5
:10187000CF92DF92EF92FF920F931F93CF93DF935C
:10188000CDB7DEB729013A01621B730B840B950BB0
:1018900029893A894B895C892A193B094C095D09D8
:1018A000298B3A8B4B8B5C8B9B01AC0169897A89C4
:1018B0008B899C890E94290EE418F50806091709EE
:1018C000A80197010E946F0E2A0D3B1D4C1D5D1D46
:1018D000CA01B901DF91CF911F910F91FF90EF9055
:1018E000DF90CF90BF90AF907F906F905F904F90C0
:1018F000089508955058BB27AA270ED009C1FAD0E1
:1019000030F0FFD020F031F49F3F11F41EF4EFC00F
:101910000EF4E095E7FBE5C0E92F0BD180F3BA1791
:10192000620773078407950718F071F49EF523C1C9
:101930000EF4E0950B2EBA2FA02D0B01B9019001EA
:101940000C01CA01A0011124FF27591B99F0593F2E
:1019500050F4503E68F11A16F040A22F232F342F76
:101960004427585FF3CF469537952795A795F040C4
:101970005395C9F77EF41F16BA0B620B730B840BD9
:10198000BAF09150A1F0FF0FBB1F661F771F881F91
:10199000C2F70EC0BA0F621F731F841F48F48795E9
:1019A00077956795B795F7959E3F08F0B3CF9395D8
:1019B000880F08F09927EE0F97958795089504D022
:1019C0006894B111D9C00895BCD088F09F5790F0A9
:1019D000B92F9927B751A0F0D1F0660F771F881F54
:1019E000991F1AF0BA95C9F712C0B13081F0C3D06F
:1019F000B1E00895C0C0672F782F8827B85F39F00D
:101A0000B93FCCF3869577956795B395D9F73EF4B2
:101A100090958095709561957F4F8F4F9F4F08955A
:101A2000E89409C097FB3EF4909580957095619578
:101A30007F4F8F4F9F4F9923A9F0F92F96E9BB272E
:101A40009395F695879577956795B795F111F8CFAA
:101A5000FAF4BB0F11F460FF1BC06F5F7F4F8F4F15
:101A60009F4F16C0882311F096E911C0772321F00B
:101A70009EE8872F762F05C0662371F096E8862FA3
:101A800070E060E02AF09A95660F771F881FDAF7FA
:101A9000880F9695879597F90895990F0008550F27
:101AA000AA0BE0E8FEEF16161706E807F907C0F0E4
:101AB00012161306E407F50798F0621B730B840BEC
:101AC000950B39F40A2661F0232B242B252B21F4C6
:101AD00008950A2609F4A140A6958FEF811D811D66
:101AE000089597F99F6780E870E060E008959FEFA0
:101AF00080EC089500240A941616170618060906A5
:101B0000089500240A941216130614060506089573
:101B1000092E0394000C11F4882352F0BB0F40F4FB
:101B2000BF2B11F460FF04C06F5F7F4F8F4F9F4F3B
:101B3000089557FD9058440F551F59F05F3F71F0BD
:101B40004795880F97FB991F61F09F3F79F0879524
:101B50000895121613061406551FF2CF4695F1DFAD
:101B600008C0161617061806991FF1CF869571053D
:101B7000610508940895E894BB2766277727CB0171
:101B800097F908958ADF08F48FEF08950BD0C0CF3E
:101B9000B1DF28F0B6DF18F0952309F0A2CFA7CF68
:101BA0001124EACFC6DFA0F3959FD1F3950F50E043
:101BB000551F629FF001729FBB27F00DB11D639FFF
:101BC000AA27F00DB11DAA1F649F6627B00DA11DA5
:101BD000661F829F2227B00DA11D621F739FB00D4B
:101BE000A11D621F839FA00D611D221F749F3327BB
:101BF000A00D611D231F849F600D211D822F762F54
:101C00006A2F11249F5750408AF0E1F088234AF050
:101C1000EE0FFF1FBB1F661F771F881F915050409C
:101C2000A9F79E3F510570F05CCFA6CF5F3FECF364
:101C3000983EDCF3869577956795B795F795E79588
:101C40009F5FC1F7FE2B880F911D9695879597F999
:101C50000895DB018F939F930E948E0EBF91AF91E9
:101C6000A29F800D911DA39F900DB29F900D1124F6
:101C7000089597FB072E16F4009407D077FD09D03E
:101C80000E94990E07FC05D03EF4909581959F4FD8
:101C90000895709561957F4F0895A1E21A2EAA1BB1
:101CA000BB1BFD010DC0AA1FBB1FEE1FFF1FA2170C
:101CB000B307E407F50720F0A21BB30BE40BF50B09
:101CC000661F771F881F991F1A9469F76095709592
:101CD000809590959B01AC01BD01CF010895052E23
:101CE00097FB1EF400940E94860E57FD07D00E94B9
:101CF0004D0E07FC03D04EF40C94860E5095409583
:101D0000309521953F4F4F4F5F4F089590958095A7
:101D1000709561957F4F8F4F9F4F08950E94B30E2E
:101D2000A59F900DB49F900DA49F800D911D11242F
:101D30000895AA1BBB1B51E107C0AA1FBB1FA61712
:101D4000B70710F0A61BB70B881F991F5A95A9F764
:101D500080959095BC01CD010895EE0FFF1F059071
:101D6000F491E02D0994A29FB001B39FC001A39FFD
:101D7000700D811D1124911DB29F700D811D1124C4
:101D8000911D089510E0C6ECD0E004C0FE010E9451
:0E1D9000AF0E2296C83CD107C9F7F894FFCFDA
:101D9E0001000000000000007602240BE202550252
:101DAE00C802FA024C3A200020523A2000000000ED
:101DBE0000A809240B2A094309350986090D0A00D2
:0E1DCE006E616E00696E66006F7666002E0014
:00000001FF
